{
  "contractName": "Cruds",
  "abi": [
    {
      "inputs": [
        {
          "internalType": "string",
          "name": "doc_cid",
          "type": "string"
        }
      ],
      "name": "addDoctor",
      "outputs": [],
      "stateMutability": "nonpayable",
      "type": "function"
    },
    {
      "inputs": [],
      "name": "getDoctor",
      "outputs": [
        {
          "internalType": "string[]",
          "name": "",
          "type": "string[]"
        }
      ],
      "stateMutability": "view",
      "type": "function",
      "constant": true
    },
    {
      "inputs": [
        {
          "internalType": "string",
          "name": "patient_cid",
          "type": "string"
        }
      ],
      "name": "addPatient",
      "outputs": [],
      "stateMutability": "nonpayable",
      "type": "function"
    },
    {
      "inputs": [],
      "name": "getPatient",
      "outputs": [
        {
          "internalType": "string[]",
          "name": "",
          "type": "string[]"
        }
      ],
      "stateMutability": "view",
      "type": "function",
      "constant": true
    }
  ],
  "bytecode": "0x608060405234801561001057600080fd5b5061090b806100206000396000f3fe608060405234801561001057600080fd5b506004361061004c5760003560e01c80630be61700146100515780633aaa59201461006d5780637b0f9a361461008b578063fb87cf94146100a9575b600080fd5b61006b60048036038101906100669190610441565b6100c5565b005b6100756100fd565b60405161008291906105cb565b60405180910390f35b6100936101d6565b6040516100a091906105cb565b60405180910390f35b6100c360048036038101906100be9190610441565b6102af565b005b6000819080600181540180825580915050600190039060005260206000200160009091909190915090816100f99190610803565b5050565b60606000805480602002602001604051908101604052809291908181526020016000905b828210156101cd5783829060005260206000200180546101409061061c565b80601f016020809104026020016040519081016040528092919081815260200182805461016c9061061c565b80156101b95780601f1061018e576101008083540402835291602001916101b9565b820191906000526020600020905b81548152906001019060200180831161019c57829003601f168201915b505050505081526020019060010190610121565b50505050905090565b60606001805480602002602001604051908101604052809291908181526020016000905b828210156102a65783829060005260206000200180546102199061061c565b80601f01602080910402602001604051908101604052809291908181526020018280546102459061061c565b80156102925780601f1061026757610100808354040283529160200191610292565b820191906000526020600020905b81548152906001019060200180831161027557829003601f168201915b5050505050815260200190600101906101fa565b50505050905090565b6001819080600181540180825580915050600190039060005260206000200160009091909190915090816102e39190610803565b5050565b6000604051905090565b600080fd5b600080fd5b600080fd5b600080fd5b6000601f19601f8301169050919050565b7f4e487b7100000000000000000000000000000000000000000000000000000000600052604160045260246000fd5b61034e82610305565b810181811067ffffffffffffffff8211171561036d5761036c610316565b5b80604052505050565b60006103806102e7565b905061038c8282610345565b919050565b600067ffffffffffffffff8211156103ac576103ab610316565b5b6103b582610305565b9050602081019050919050565b82818337600083830152505050565b60006103e46103df84610391565b610376565b905082815260208101848484011115610400576103ff610300565b5b61040b8482856103c2565b509392505050565b600082601f830112610428576104276102fb565b5b81356104388482602086016103d1565b91505092915050565b600060208284031215610457576104566102f1565b5b600082013567ffffffffffffffff811115610475576104746102f6565b5b61048184828501610413565b91505092915050565b600081519050919050565b600082825260208201905092915050565b6000819050602082019050919050565b600081519050919050565b600082825260208201905092915050565b60005b838110156104f05780820151818401526020810190506104d5565b60008484015250505050565b6000610507826104b6565b61051181856104c1565b93506105218185602086016104d2565b61052a81610305565b840191505092915050565b600061054183836104fc565b905092915050565b6000602082019050919050565b60006105618261048a565b61056b8185610495565b93508360208202850161057d856104a6565b8060005b858110156105b9578484038952815161059a8582610535565b94506105a583610549565b925060208a01995050600181019050610581565b50829750879550505050505092915050565b600060208201905081810360008301526105e58184610556565b905092915050565b7f4e487b7100000000000000000000000000000000000000000000000000000000600052602260045260246000fd5b6000600282049050600182168061063457607f821691505b602082108103610647576106466105ed565b5b50919050565b60008190508160005260206000209050919050565b60006020601f8301049050919050565b600082821b905092915050565b6000600883026106af7fffffffffffffffffffffffffffffffffffffffffffffffffffffffffffffffff82610672565b6106b98683610672565b95508019841693508086168417925050509392505050565b6000819050919050565b6000819050919050565b60006107006106fb6106f6846106d1565b6106db565b6106d1565b9050919050565b6000819050919050565b61071a836106e5565b61072e61072682610707565b84845461067f565b825550505050565b600090565b610743610736565b61074e818484610711565b505050565b5b818110156107725761076760008261073b565b600181019050610754565b5050565b601f8211156107b7576107888161064d565b61079184610662565b810160208510156107a0578190505b6107b46107ac85610662565b830182610753565b50505b505050565b600082821c905092915050565b60006107da600019846008026107bc565b1980831691505092915050565b60006107f383836107c9565b9150826002028217905092915050565b61080c826104b6565b67ffffffffffffffff81111561082557610824610316565b5b61082f825461061c565b61083a828285610776565b600060209050601f83116001811461086d576000841561085b578287015190505b61086585826107e7565b8655506108cd565b601f19841661087b8661064d565b60005b828110156108a35784890151825560018201915060208501945060208101905061087e565b868310156108c057848901516108bc601f8916826107c9565b8355505b6001600288020188555050505b50505050505056fea2646970667358221220aa581b196c74c86dc4d9a636e5dfcb0ebb521f5eaba0394ae6e05f88a1fbe96b64736f6c63430008130033",
  "immutableReferences": {},
  "source": "// SPDX-License-Identifier: MIT\npragma solidity ^0.8.19;\n\ncontract Cruds {\n    string[] doctors;\n    string[] patients;\n\n    function addDoctor(string memory doc_cid) public {\n        doctors.push(doc_cid);\n    }\n\n    function getDoctor() public view returns (string[] memory) {\n        return doctors;\n    }\n\n    function addPatient(string memory patient_cid) public {\n        patients.push(patient_cid);\n    }\n\n    function getPatient() public view returns (string[] memory) {\n        return patients;\n    }\n}\n",
  "sourcePath": "/Users/rushi2109/Downloads/EndSem_Project/solidity/contracts/EHR_Crud.sol",
  "compiler": {
    "name": "solc",
    "version": "0.8.19+commit.7dd6d404.Emscripten.clang"
  },
  "schemaVersion": "3.4.16",
  "updatedAt": "2024-05-07T09:37:07.469Z",
  "networkType": "ethereum",
  "devdoc": {
    "kind": "dev",
    "methods": {},
    "version": 1
  },
  "userdoc": {
    "kind": "user",
    "methods": {},
    "version": 1
  }
}