{
  "contractName": "Cruds",
  "address": "0x21d2bEE5bfa9ea707F62268F29dfB692e6648255",
  "abi": [
    {
      "inputs": [
        {
          "internalType": "string",
          "name": "doc_cid",
          "type": "string"
        }
      ],
      "name": "addDoctor",
      "outputs": [],
      "stateMutability": "nonpayable",
      "type": "function"
    },
    {
      "inputs": [],
      "name": "getDoctor",
      "outputs": [
        {
          "internalType": "string[]",
          "name": "",
          "type": "string[]"
        }
      ],
      "stateMutability": "view",
      "type": "function"
    },
    {
      "inputs": [
        {
          "internalType": "string",
          "name": "patient_cid",
          "type": "string"
        }
      ],
      "name": "addPatient",
      "outputs": [],
      "stateMutability": "nonpayable",
      "type": "function"
    },
    {
      "inputs": [],
      "name": "getPatient",
      "outputs": [
        {
          "internalType": "string[]",
          "name": "",
          "type": "string[]"
        }
      ],
      "stateMutability": "view",
      "type": "function"
    }
  ],
  "bytecode": "0x608060405234801561001057600080fd5b5061099d806100206000396000f3fe608060405234801561001057600080fd5b506004361061004c5760003560e01c80630be61700146100515780633aaa59201461006d5780637b0f9a361461008b578063fb87cf94146100a9575b600080fd5b61006b60048036038101906100669190610627565b6100c5565b005b610075610217565b604051610082919061072a565b60405180910390f35b6100936102f0565b6040516100a0919061072a565b60405180910390f35b6100c360048036038101906100be9190610627565b6103c9565b005b60005b6000805490508110156101d6576000808281548110610110577f4e487b7100000000000000000000000000000000000000000000000000000000600052603260045260246000fd5b9060005260206000200180546101259061084e565b80601f01602080910402602001604051908101604052809291908181526020018280546101519061084e565b801561019e5780601f106101735761010080835404028352916020019161019e565b820191906000526020600020905b81548152906001019060200180831161018157829003601f168201915b505050505090508280519060200120818051906020012014156101c2575050610214565b5080806101ce90610880565b9150506100c8565b5060008190806001815401808255809150506001900390600052602060002001600090919091909150908051906020019061021292919061051c565b505b50565b60606000805480602002602001604051908101604052809291908181526020016000905b828210156102e757838290600052602060002001805461025a9061084e565b80601f01602080910402602001604051908101604052809291908181526020018280546102869061084e565b80156102d35780601f106102a8576101008083540402835291602001916102d3565b820191906000526020600020905b8154815290600101906020018083116102b657829003601f168201915b50505050508152602001906001019061023b565b50505050905090565b60606001805480602002602001604051908101604052809291908181526020016000905b828210156103c05783829060005260206000200180546103339061084e565b80601f016020809104026020016040519081016040528092919081815260200182805461035f9061084e565b80156103ac5780601f10610381576101008083540402835291602001916103ac565b820191906000526020600020905b81548152906001019060200180831161038f57829003601f168201915b505050505081526020019060010190610314565b50505050905090565b60005b6001805490508110156104db57600060018281548110610415577f4e487b7100000000000000000000000000000000000000000000000000000000600052603260045260246000fd5b90600052602060002001805461042a9061084e565b80601f01602080910402602001604051908101604052809291908181526020018280546104569061084e565b80156104a35780601f10610478576101008083540402835291602001916104a3565b820191906000526020600020905b81548152906001019060200180831161048657829003601f168201915b505050505090508280519060200120818051906020012014156104c7575050610519565b5080806104d390610880565b9150506103cc565b5060018190806001815401808255809150506001900390600052602060002001600090919091909150908051906020019061051792919061051c565b505b50565b8280546105289061084e565b90600052602060002090601f01602090048101928261054a5760008555610591565b82601f1061056357805160ff1916838001178555610591565b82800160010185558215610591579182015b82811115610590578251825591602001919060010190610575565b5b50905061059e91906105a2565b5090565b5b808211156105bb5760008160009055506001016105a3565b5090565b60006105d26105cd8461077d565b61074c565b9050828152602081018484840111156105ea57600080fd5b6105f584828561080c565b509392505050565b600082601f83011261060e57600080fd5b813561061e8482602086016105bf565b91505092915050565b60006020828403121561063957600080fd5b600082013567ffffffffffffffff81111561065357600080fd5b61065f848285016105fd565b91505092915050565b600061067483836106f1565b905092915050565b6000610687826107bd565b61069181856107e0565b9350836020820285016106a3856107ad565b8060005b858110156106df57848403895281516106c08582610668565b94506106cb836107d3565b925060208a019950506001810190506106a7565b50829750879550505050505092915050565b60006106fc826107c8565b61070681856107f1565b935061071681856020860161081b565b61071f81610956565b840191505092915050565b60006020820190508181036000830152610744818461067c565b905092915050565b6000604051905081810181811067ffffffffffffffff8211171561077357610772610927565b5b8060405250919050565b600067ffffffffffffffff82111561079857610797610927565b5b601f19601f8301169050602081019050919050565b6000819050602082019050919050565b600081519050919050565b600081519050919050565b6000602082019050919050565b600082825260208201905092915050565b600082825260208201905092915050565b6000819050919050565b82818337600083830152505050565b60005b8381101561083957808201518184015260208101905061081e565b83811115610848576000848401525b50505050565b6000600282049050600182168061086657607f821691505b6020821081141561087a576108796108f8565b5b50919050565b600061088b82610802565b91507fffffffffffffffffffffffffffffffffffffffffffffffffffffffffffffffff8214156108be576108bd6108c9565b5b600182019050919050565b7f4e487b7100000000000000000000000000000000000000000000000000000000600052601160045260246000fd5b7f4e487b7100000000000000000000000000000000000000000000000000000000600052602260045260246000fd5b7f4e487b7100000000000000000000000000000000000000000000000000000000600052604160045260246000fd5b6000601f19601f830116905091905056fea2646970667358221220bf2086facdf4a407eefbb9965c07a39e15f5f0c6c7d58163876216a1c9ea491164736f6c63430008000033",
  "immutableReferences": {},
  "source": "// SPDX-License-Identifier: MIT\n// pragma solidity >=0.4.22 <0.9.0;\npragma solidity ^0.8.0;\n\ncontract Cruds {\n    string[] doctors;\n    string[] patients;\n\n    function addDoctor(string memory doc_cid) public {\n        for (uint i = 0; i < doctors.length; i++) {\n            string memory x = doctors[i];\n            if (keccak256(bytes(x)) == keccak256(bytes(doc_cid))) return;\n        }\n        doctors.push(doc_cid);\n    }\n\n    function getDoctor() public view returns (string[] memory) {\n        return doctors;\n    }\n\n    function addPatient(string memory patient_cid) public {\n        for (uint i = 0; i < patients.length; i++) {\n            string memory x = patients[i];\n            if (keccak256(bytes(x)) == keccak256(bytes(patient_cid))) return;\n        }\n        patients.push(patient_cid);\n    }\n\n    function getPatient() public view returns (string[] memory) {\n        return patients;\n    }\n}\n",
  "sourcePath": "/Users/rushi2109/Downloads/EndSem_Project/solidity/contracts/EHR_Crud.sol",
  "compiler": {
    "name": "solc",
    "version": "0.8.0+commit.c7dfd78e.Emscripten.clang"
  },
  "schemaVersion": "3.4.16",
  "updatedAt": "2024-05-03T23:40:10.477Z",
  "devdoc": {
    "kind": "dev",
    "methods": {},
    "version": 1
  },
  "userdoc": {
    "kind": "user",
    "methods": {},
    "version": 1
  }
}